:03000000020F727A
:0C0F7200787FE4F6D8FD758175020FB998
:10134800D0A1D3DA31C3D700D0A1D3DA32C3D700C2
:08135800D0A1D3DA33C3D700A2
:0B114500090AB5B1C7B0BEE0C0EB0066
:100CE8001212791212BB1212D912138C12139C12FF
:100CF8001068E57564014574701E121068AF1CAE6B
:100D08001B120DF3E4F574F575D3E50994F4E508C1
:100D1800648094815002B2A01213BA30B2FD120F4F
:100D2800FE8E088F0912139CE573457270C4D3E5D3
:100D38000994E8E50864809483501D7525FF75269D
:100D4800137527487B007A00790A1208D57B007A48
:100D580000790AE4FF120EE2D3E50994DCE50864A1
:100D6800809485500FC3E50994F4E5086480948164
:100D78004002B2A0D3E50994D0E508648094875076
:100D88002AC3E50994E8E50864809483401D752525
:100D9800FF7526137527507B007A00790A1208D54B
:100DA8007B007A00790AE4FF120EE2D3E50994B8D1
:100DB800E5086480948B4003020CFAC3E50994D0DB
:100DC800E508648094875003020CFA7525FF7526A0
:100DD800137527587B007A00790A1208D57B007AA8
:0B0DE80000790AE4FF120EE2020CFA90
:101257002020202020202020202020202020202087
:101267000020202020202020202020202020202097
:02127700200055
:06000300EFC313FFDFFE56
:0100090022D4
:10000E00AE077F14120003C2A5C2A3C2A400D2A5DC
:05001E008E80C2A52246
:10136000AE077F14120003C2A5D2A3C2A400D2A567
:071370008E80C2A5C2A3227A
:0712350075830012063CFD69
:02123C00AE07FB
:10123E00EEC39410EE400524B0FC80032480FCAF76
:09124E000412000EAF050213604A
:061173008B468A47894803
:10117900EFC454F0F549E4F54AAF490549AB46AA2D
:1011890047A948854A82121235054AE54AC394108F
:0211990040E72D
:01119B002231
:06119C008B468A478948DA
:1011A200EFC454F0F549E4F54AAF490549AB46AA04
:1011B20047A948854A82121235054AE54AC3941066
:0211C20040E704
:0111C4002208
:1012BB007F3812000E7F3812000E7F3812000E7F1F
:0E12CB000612000E7F0C12000E7F0102000EB4
:040DF3008E228F239A
:100DF70078247C007D007BFF7A1279577E007F1173
:100E07001205FD78357C007D007BFF7A1279687EBC
:100E1700007F111205FDAE08AF097C037DE81206BD
:100E27008D8F17AE08AF097C007D6412068D7C009C
:100E37007D0A12068D8D18AE08AF097C007D0A1257
:100E4700068D7C007D0A12068D8D19AE08AF097CD0
:100E5700007D0A12068D8D1AAE22AF237C007D64B9
:100E670012068DEF2430F529AE22AF237C007D6476
:100E770012068D7E007F0ACFCDCFCECCCE12068D47
:100E8700EF2430F52A752B2EAE22AF237C007D0A86
:100E970012068DED2430F52C75283A7526577527DF
:100EA7004475374375384D75393AE5172430F53AA7
:100EB700E5182430F53BE5192430F53C753D2EE562
:100EC7001A2430F53E7B007A007924E4FF1211736F
:0B0ED7007B007A0079357F0102119C3E
:1012D900759850438920438780758BFA758DFA4339
:0D12E900A890D29CC299C298D28ED2AC229D
:0E13AC00C2ACC2998F993099FDC299D2AC2281
:0611EC008B5A8A5B895C4E
:1011F200E4FEEEC39D5018AB5A055CE55CAA5B7039
:0F12020002055B14F9120623FF1213AC0E80E3F2
:0112110022BA
:030023000213D1F4
:0613D100309802C29832C0
:080EE2008F228B238A2489254D
:100EEA00E4F559FFFE1213778F587526FDE4F527AE
:100EFA00E5582403F528752901E522C454F0440174
:100F0A00F52AE4FEFF74262FF8E662590FBF0001A6
:100F1A000EEF64054E70EEE4FEFFC3EF9558EE94B3
:100F2A00005016AB23AA24A9258F828E8312063C71
:100F3A0062590FBF00010E80E1AF587E00782B7C0A
:100F4A00007D00AB23AA24A9251205FD742B255880
:100F5A00F8A6597B007A007926E5582406FD121175
:070F6A00EC757200757301C4
:010F7100225D
:101150000274000002720001026E000A027003E8CD
:10127900758CF8758A30758901D28CD2A9C2A87586
:10128900CAF875CB30E4F5C8F5C9D2CAD2ADD2AF28
:011299002232
:03000B000210BD23
:0910BD00C0E0C0D075D000C006EF
:1010C600758CF8758A30E56F156FAE6E7002156E09
:1010D6004E700AF574757501F56E756F0AE5711532
:1010E60071AE70700215704E700AF572F5737570F8
:0410F600037571E825
:0710FA00D006D0D0D0E03297
:04116000021B00006E
:101068001212F67FCC12132E7F4412132E1212F690
:101078007FCC12132E7FBE12132E12129A8F2212B9
:10108800129A751B008F1CE51C751C00F51BE522C8
:10109800421CAC1BAD1CEC120231E4FBFA7920783F
:1010A8003F120126E4FBFAF9783F12003512026A72
:0410B8008E1B8F1CE0
:0110BC002211
:0B13C600AE071FEE6004000080F6225E
:1012F600D2D730D717C2B37F301213C6D2B37F0608
:0D1306001213C6A2B37F2A1213C680E6227E
:10129A00E4FDFCEDC313FDC2B30000D2B30000307D
:1012AA00B3034305807F061213C60CBC08E5AF05DD
:0112BA002211
:02132E00AD0709
:10133000E4FCC2B30000EDC313FD92B37F061213A9
:07134000C6D2B30CBC08EBA0
:011347002283
:0E116400045E00000000026C00000262000148
:10131300EF1FAA0670011ED39400EA9400400BE469
:0A132300FDEDC3947D50E90D80F745
:01132D00229D
:10138C00E4F5C8F5C975CC6675CDFCD2ADD2AF22EB
:0C13BA00D2907F017E00121313C290221B
:10139C00D290D2B2E4F55DF561F560F55FF55E22B1
:100FFE00D2CA20B2FDC2CAADCCAFCDEFFE7C00E4AA
:10100E002DFFEC3EAB07FA749A2BFB74033AFAAF42
:10101E005D7E007C037DE812067BEF2BFFEE3AFE31
:10102E00E48F618E60F55FF55E75CC6675CDFC7FE5
:10103E001EFE121313E47FA77E0DFDFCAB61AA60AA
:10104E00A95FA85E1206C3E47B207A4EF9F812114E
:09105E00018F618E608D5F8C5ED4
:011067002266
:03002B00021212AC
:10121200C0E0C0D0C2CF75CC6675CDFC055DE55D82
:10122200B4120BC2CA75CC6675CDFC755D00D0D008
:03123200D0E032D7
:10002E000202D6E86480F8E933E83360110460F028
:10003E00ED33EC337009E8FCE9FDEAFEEBFF220438
:10004E0060DED3EB9FEA9EE99DE8C2E78CF0C2F733
:10005E0095F0400CE8CCF8E9CDF9EACEFAEBCFFBFF
:10006E001202A185D0F05804700320D5B3E80470B5
:10007E00075002B2D50202E092D5EC0460F7E4CC50
:10008E00C0E0C398F8603B94186008400DD0E0FBC8
:10009E000202B8E4FBFAC9FC8028E830E406E4C9A1
:1000AE00FBE4CAFCE830E305E4C9CACBFCE854071C
:1000BE006010F8C3E913F9EA13FAEB13FBEC13FC27
:1000CE00D8F130F52FC3E49CFCEF9BFFEE9AFEEDCA
:1000DE0099FDD0E0FBEF4E4D4C701222DB03020275
:1000EE00DDEC2CFCEF33FFEE33FEED33FDED30E7B0
:1000FE00EB0202B8EF2BFFEE3AFEED39FDD0E0FB3E
:10010E0050130BBB00030202E0ED13FDEE13FEEFE6
:08011E0013FFEC13FC0202B810
:10012600EC4D6011E8497017ED33EC3304600DE4D3
:10013600FCFFFEFD22E933E8330470F80202D61212
:1001460002A158046009E4CC248150062850090213
:1001560002E02840030202DDC0E0EB4A7044B980A9
:1001660006D0E0FB0202CCEF4E701CBD8008EBFF10
:10017600EAFEE9FD80EBE98DF0A4FEE5F002020F50
:10018600E9CDF9EAFEEBFFEF89F0A4FCE5F0CE89B4
:10019600F0A42EFFE435F0CD89F0A42DFEE435F071
:1001A6008067EF4E7005BD80D780C3EF8BF0A4AC9F
:1001B600F0EE8BF0A42CFCE435F0F8EF8AF0A42CDA
:1001C600E5F038FCE433CB8DF0A42CFCE5F03BF8ED
:1001D600EE8AF0A42CFCE5F038F8E433CF89F0A4DD
:1001E6002CFCE5F038CF3400CE89F0A42FFFE5F0E3
:1001F6003EFEE433C98DF0A42EFEE5F039CD8AF03B
:10020600A42FFFE5F03EFEE43DFD33D0E0FB5007B2
:100216000BBB000F0202E0EC2CFCEF33FFEE33FECB
:06022600ED33FD0202B8F9
:10022C0075F020800E75F010800575F0087D007E4D
:10023C00007F003392D530D503120712EC334010F7
:10024C00EF33FFEE33FEED33FDEC33FCD5F0ED2256
:0E025C00E5F0247EA2D513CC92E7CDCEFF2292
:10026A00EDD2E7CD33EC3392D524814006E4FFFE8C
:10027A00FDFC22FCE4CFCECDCC24E0501174FF80EB
:10028A00EDC3CC13CCCD13CDCE13CECF13CF047088
:07029A00F030D5DE0207126F
:10087900E5392425F8E6053922782230070278255A
:10088900E475F0011207200206232000EB7F2ED227
:10089900008018EF540F2490D43440D4FF30040B57
:1008A900EF24BFB41A0050032461FFE53A60021532
:1008B9003A053DE53D7002053C30070D7822E475A7
:1008C900F001120720EF0206690211C57403D2076D
:1008D9008003E4C207F5398B228A238924E4F53A97
:1008E900F53CF53DE53A60077F201208B480F575BF
:1008F9003BFFC201C200C202C203C205C206C2084E
:10090900120882FF700D3007057F001208C5AF3D40
:10091900AE3C22B4255FC2D5C204120882FF24D09E
:10092900B40A00501A75F00A783A30D50508B6FFAE
:100939000106C6A426F620D5047002D20380D92464
:10094900CFB41A00EF5004C2E5D204020BB2D201AF
:1009590080C6D20080C0D20280BCD2D580BAD2056E
:1009690080B47F201208B42002077401B53A004010
:10097900F1120879FF1208B40208EDD208D20680F4
:1009890095120879FB120879FA120879F94A4B701D
:100999000679A97A0C7BFF20022EE53A602A7E00AF
:1009A9008E8275830012063C60060EEE653B70F080
:1009B900C2D5EBC0E0EAC0E0E9C0E0EE120C12D00B
:1009C900E0F9D0E0FAD0E0FB120623FF60AAEBC001
:1009D900E0EAC0E0E9C0E01208B4D0E02401F9D0AF
:1009E900E03400FAD0E0FBE53B0460DCD53BD9807C
:1009F90087D20280A2120BF560F7E53B7001041261
:100A090002EBA93B600DE53B600914F53B120C9C18
:100A1900EF60F3EA30E702F404C3995077EAF4256A
:100A29003B0430E701E404F53B800D120BF560C18E
:100A3900EA053B253B1202EBEA7838F630E701E498
:100A4900253B04D53B0420050114120C12E4C0E037
:100A5900120C9C7838E6601320E70714F612089CFC
:100A6900802204F6D0E014C0E07F0012089CE53B28
:100A79006007120893153B800B300503120893D0C9
:100A8900E00208EDD0E00480C5120BF560A0E53B5B
:100A9900041202EB7838EAF6E53B2005026001040E
:050AA9002404120C12F0
:100AAE0074FF04C0E0120C9C12089CE53B2005026A
:100ABE006003120893D0E0B53BE87F451208A67894
:100ACE0038E67F2B30E7047F2DF404C0E01208B423
:100ADE00D0E075F00A84C0F012089DD0E012089D97
:100AEE000208ED791080027908C206C2088008D289
:100AFE00D5790A8004790AC2D5E53B047002F53B2C
:100B0E00E4FAFDFEFF120879FC7B0820011312089F
:100B1E0079FD7B1030000A120879FE120879FF7BEE
:100B2E0020EC3382D592D55013C3E43000069FFFDC
:100B3E00E49EFEE42001039DFDE49CFCE4CBF8C2A0
:100B4E0001EC700CCFCECDCCE824F8F870F3801702
:100B5E00C3EF33FFEE33FEED33FDEC33FCEB33FB33
:100B6E00994002FB0FD8E9EB300105F8D0E0C448FC
:100B7E00B201C0E00AEC4D4E4F78207B0070C2EA05
:100B8E00B53B0040BCC0E0120C14D0F0D0E0200108
:100B9E0004C4C0E0C4B201C0F012089DD0F0D5F07C
:100BAE00EB0208ED120730098A530AF158095B4C23
:100BBE000957420AF54F0AFD440AFD490970430BD5
:100BCE0003550A34460A924509FE470CC950095F7F
:100BDE002D09632E09862B0967230984200CB22A5E
:100BEE00091F480000097EE53BB4FF03753B061262
:100BFE000879FC120879FD120879FE120879FF783F
:100C0E003102031A790AA2D5200314300509B9104E
:100C1E00020404B9080104A2D520060250010420E2
:100C2E0002689202B53A005034C0E07F20300319BA
:100C3E007F30A20272067205500F120C6BC202C2F6
:100C4E0006C205C2087F30800F300503E9C0E012EE
:100C5E0008B4300503D0E0F9D0E0B53ACC30051732
:100C6E007F30B9100C1208B47F583004077F78809B
:100C7E0003B908031208B43002057F2D0208B47FB1
:100C8E00202008F87F2B2006F322920280CF7F00CF
:100C9E00B4070050052431F8E6FF22286E756C6CFF
:100CAE002900D2011208793001F8C201783A30D504
:100CBE000108F602091F2D504349581208792403E2
:100CCE00B405004001E4900CC4931208A5743A12C6
:0A0CDE0008A5D203753A04020AF1DA
:1002A100E9D2E7C933E833F892D5EDD2E7CD33ECA3
:0702B10033FC5002B2D5221C
:1002B800EC30E7100FBF000C0EBE00080DBD0004A7
:1002C8000BEB6014A2D5EB13FCED92E7FD2274FF53
:1002D800FCFDFEFF22E480F8A2D574FF13FC7D80AC
:0302E800E480EFC0
:1002EB00F920E72824F950037907E4F42402FB18DA
:1002FB00DBFDE624FB5014E9600DE4F618E604F68A
:0F030B00B40A08E4F6D9F57401F60A22C2D52225
:10031A00ED33EC3392D5FA602AB4FF33EDC2E77BB2
:10032A00FF60067A03793FE4227A03794820D504EC
:10033A007A037943224E614E002B494E46002D49DD
:10034A004E4600E47A08F608DAFC7B00740722E8D5
:10035A00C0E0ECC0E0EDC0E0EEC0E0EFC0E0EA755E
:10036A00F010A4CAABF075F04DA42BFBE435F0FCF9
:10037A00EA2410FAEB34C5FBEC34D9FCEDC2E7FFF2
:10038A0075F056A4F42411C5F0F434C58FF0A42AEC
:10039A00E5F03BE43CF620E7141204EDD0E0FFD090
:1003AA00E0FED0E0FDD0E0FC1204208014F4041238
:1003BA0004EDD0E0FFD0E0FED0E0FDD0E0FC120179
:1003CA0026D0E0F8E6FAEDD2E7CD33EC332482FB0F
:1003DA00E4C3CF33CFCE33CECD33CD33DBF37B077C
:1003EA0075F00A846004F6081B0AE5F0F6088FF037
:1003FA00740AA4FFACF08EF0740AA42CFEACF05080
:10040A00010C8DF0740AA42CFDE435F0F608DBDE4D
:03041A0074072242
:10041D000202E0EC5D046005E8590470030202D6A7
:10042D001202A1580460F6EC4860F2EC7004FDFE77
:10043D00FF22C860DB2481C85009C39860025006B2
:10044D000202DD9850CAF582E9294B4A7005AB824C
:10045D000202CC75F0007C1A7880C3EF9BEE9AED0A
:10046D0099400DC3EF9BFFEE9AFEED99FDE842F02A
:10047D00DC23ACF0D0E0FFD0E0FED0E0FDAB82207D
:10048D00E7101BEB60BAEC2CFCEF33FFEE33FEED07
:10049D0033FD0202B8E803F830E705C0F075F0004F
:1004AD00EF2FFFEE33FEED33FD40B830E7C280AAEB
:1004BD003F8000004120000042C80000447A000047
:1004CD00461C400047C35000497424004B189680C9
:1004DD004CBEBC205A0E1BCA6753C21C749DC5AEC0
:1004ED00FB60065407601C232312051BEB54386078
:1004FD0009120507120516120126ECF8EDF9EEFAB0
:10050D00EFCB22EB12051680F1543803241C900416
:10051D00BDFE93FC0EEE93FD0EEE930ECE93FF22D9
:100F7E00020CE8E493A3F8E493A34003F68001F295
:100F8E0008DFF48029E493A3F85407240CC8C33374
:100F9E00C4540F4420C8834004F456800146F6DF43
:100FAE00E4800B0102040810204080901145E47E7D
:100FBE00019360BCA3FF543F30E509541FFEE49338
:100FCE00A360010ECF54C025E060A840B8E493A3FF
:100FDE00FAE493A3F8E493A3C8C582C8CAC583CA2A
:100FEE00F0A3C8C582C8CAC583CADFE9DEE780BEE2
:01117200007C
:10052D00E709F608DFFA8046E709F208DFFA803EB0
:10053D0088828C83E709F0A3DFFA8032E309F6089D
:10054D00DFFA8078E309F208DFFA807088828C8305
:10055D00E309F0A3DFFA806489828A83E0A3F608B9
:10056D00DFFA805889828A83E0A3F208DFFA804C93
:10057D0080D280FA80C680D4806980F2803380106A
:10058D0080A680EA809A80A880DA80E280CA8033D3
:10059D0089828A83ECFAE493A3C8C582C8CCC5834B
:1005AD00CCF0A3C8C582C8CCC583CCDFE9DEE7801B
:1005BD000D89828A83E493A3F608DFF9ECFAA9F09A
:1005CD00EDFB2289828A83ECFAE0A3C8C582C8CCF0
:1005DD00C583CCF0A3C8C582C8CCC583CCDFEADE09
:1005ED00E880DB89828A83E493A3F208DFF980CC6B
:1005FD0088F0EF60010E4E60C388F0ED2402B40464
:10060D000050B9F582EB2402B4040050AF2323450A
:06061D00822390057D73AD
:10062300BB010689828A83E0225002E722BBFE02D5
:09063300E32289828A83E4932208
:10063C00BB010CE58229F582E5833AF583E0225073
:10064C0006E92582F8E622BBFE06E92582F8E222BD
:0D065C00E58229F582E5833AF583E49322D7
:10066900BB010689828A83F0225002F722BBFE0170
:02067900F3226A
:10067B00EF8DF0A4A8F0CF8CF0A428CE8DF0A42E93
:02068B00FE224D
:10068D00C2D5EC30E709B2D5E4C39DFDE49CFCEE88
:10069D0030E715B2D5E4C39FFFE49EFE120756C3A3
:1006AD00E49DFDE49CFC800312075630D507C3E49E
:0606BD009FFFE49EFE22F7
:1006C300E88FF0A4CC8BF0A42CFCE98EF0A42CFCD6
:1006D3008AF0EDA42CFCEA8EF0A4CDA8F08BF0A454
:1006E3002DCC3825F0FDE98FF0A42CCD35F0FCEBB3
:1006F3008EF0A4FEA9F0EB8FF0A4CFC5F02ECD3978
:0F070300FEE43CFCEAA42DCE35F0FDE43CFC22E4
:10110100C2D5E830E70FB2D5E4C39BFBE49AFAE419
:1011110099F9E498F8EC30E717B2D51211371207B4
:10112100E7E4C39BFBE49AFAE499F9E498F88003B5
:101131001207E730D50DE4C39FFFE49EFEE49DFD59
:04114100E49CFC220C
:0E071200C3E49FFFE49EFEE49DFDE49CFC22F8
:10072000FAE6FB0808E6F925F0F618E6CA3AF622DA
:10073000D083D082F8E4937012740193700DA3A358
:1007400093F8740193F5828883E47374029368606C
:06075000EFA3A3A380DF6C
:1011C500EFB40A07740D1211D0740A309811A8995A
:1011D500B8130CC2983098FDA899C298B811F6308A
:0711E50099FDC299F5992262
:10137700E4FFFE120623600C0FEF70010E09E970FF
:05138700F20A80EF22D4
:10075600BC000BBE0029EF8DF084FFADF022E4CC87
:10076600F875F008EF2FFFEE33FEEC33FCEE9DEC50
:10077600984005FCEE9DFE0FD5F0E9E4CEFD22ED96
:10078600F8F5F0EE8420D21CFEADF075F008EF2FE0
:10079600FFED33FD4007985006D5F0F222C398FDD1
:0507A6000FD5F0EA226E
:1007AB0075F008758200EF2FFFEE33FECD33CDCC05
:1007BB0033CCC58233C5829BED9AEC99E582984088
:1007CB000CF582EE9BFEED9AFDEC99FC0FD5F0D665
:1007DB00E4CEFBE4CDFAE4CCF9A88222B800C1B98F
:1007EB000059BA002DEC8BF084CFCECDFCE5F0CBCD
:1007FB00F97818EF2FFFEE33FEED33FDEC33FCEB06
:10080B0033FB10D703994004EB99FB0FD8E5E4F9C0
:10081B00FA227818EF2FFFEE33FEED33FDEC33FCAD
:10082B00C933C910D7059BE99A4007EC9BFCE99AA1
:10083B00F90FD8E0E4C9FAE4CCFB2275F010EF2FE6
:10084B00FFEE33FEED33FDCC33CCC833C810D707E6
:10085B009BEC9AE899400AED9BFDEC9AFCE899F821
:0E086B000FD5F0DAE4CDFBE4CCFAE4C8F922B4
:00000001FF
