:030000000203B147
:0C03B100787FE4F6D8FD75814D0203F85A
:10055E0011082020202020202020202020202020B4
:10056E0020200011192020202020202020202020B3
:06057E00202020202000D7
:06000300EFC313FFDFFE56
:0100090022D4
:1006DA00AE077F14120003C2A7C2A5C2A600D2A702
:0506EA008E80C2A72272
:1006C300AE077F14120003C2A7D2A5C2A600D2A709
:0706D3008E80C2A7C2A52220
:07060F007583001202EBFDF0
:02061600AE072D
:10061800EEC39410EE400524B0FC80032480FCAFA8
:09062800041206DAAF050206C354
:060594008B3D8A3E893F09
:10059A00EFC454F0F540E4F541AF400540AB3DAA45
:1005AA003EA93F85418212060F0541E541C39410D9
:0205BA0040E718
:0105BC00221C
:0605BD008B428A438944D1
:1005C300EFC454F0F545E4F546AF450545AB42AA03
:1005D30043A94485468212060F0546E546C3941097
:0205E30040E7EF
:0105E50022F3
:100652007F381206DA7F381206DA7F381206DA7F1E
:0E066200061206DA7F0C1206DA7F010206DAB3
:04043D00AB07AA0659
:100441007C007D641203188F347C007D64AF03AEA1
:10045100021203187E007F0ACFCDCFCECCCE12037D
:10046100188F35AE02AF037C007D0A1203188D365A
:10047100E5342430F51EE5352430F51F75202EE5D1
:10048100362430F521751D3A751B57751C44750AC4
:1004910044750B43750C3AE52A2430F50DE53324F8
:1004A10030F50E750F257B007A007919E4FF1205EE
:0C04B100947B007A0079087F010205941A
:1005120012065212070375A8901206EF1204BD8E3E
:10052200378F38E54A4549701D053AE53A700205AC
:1005320039AF38AE3712043D1207218E3B8F3CE4AF
:10054200F549F54AB291E53A6432453970D512045B
:0C055200BD8E378F38E4F539F53A80C7CC
:04058400024B000026
:1004BD0012000E7FCC1206A97F441206A912000E5F
:1004CD007FCC1206A97FBE1206A91206318F3D12EE
:1004DD000631754B008F4CE54C754C00F54BE53DE9
:1004ED00424CAC4BAD4CEC120231E4FBFA79207866
:1004FD003F120126E4FBFAF9783F12003512026A29
:04050D008E4B8F4C36
:0105110022C7
:0B071600AE071FEE6004000080F6221A
:10000E00D2D730D717C2B37F30120716D2B37F06BE
:0D001E00120716A2B37F2A12071680E622F1
:10063100E4FDFCEDC313FDC2B30000D2B3000030F2
:10064100B3034305807F061207160CBC08E5AF050E
:010651002286
:0206A900AD079B
:1006AB00E4FCC2B30000EDC313FD92B37F06120747
:0706BB0016D2B30CBC08EBE2
:0106C2002215
:08058800024900000247000ACD
:1006EF00538E7F5389F0438901758AFE758CFFC243
:0406FF008DD28C22EA
:03000B000205E605
:0705E600C0E0C0D075D00099
:1005ED00758AEA758CFFE5481548AE4770021547C8
:0D05FD004E700AF54775480AF549754A0128
:05060A00D0D0D0E03269
:03059000014D001A
:03002B000206705A
:10067000C0E0C0D075BC00054DE54DD394074003E4
:0E068000754D00E54D4488F5BCD0D0D0E03279
:05072100AFBD7E0022C7
:10070300759DFFE4F5BDE54D4488F5BC7F027E0091
:0307130002068E4D
:10068E00EF1FAA0670011E4A60107C137D88ED1DB7
:0A069E00AA0470011C4A60E880F411
:0106A800222F
:10002E000202D6E86480F8E933E83360110460F028
:10003E00ED33EC337009E8FCE9FDEAFEEBFF220438
:10004E0060DED3EB9FEA9EE99DE8C2E78CF0C2F733
:10005E0095F0400CE8CCF8E9CDF9EACEFAEBCFFBFF
:10006E001202A185D0F05804700320D5B3E80470B5
:10007E00075002B2D50202E092D5EC0460F7E4CC50
:10008E00C0E0C398F8603B94186008400DD0E0FBC8
:10009E000202B8E4FBFAC9FC8028E830E406E4C9A1
:1000AE00FBE4CAFCE830E305E4C9CACBFCE854071C
:1000BE006010F8C3E913F9EA13FAEB13FBEC13FC27
:1000CE00D8F130F52FC3E49CFCEF9BFFEE9AFEEDCA
:1000DE0099FDD0E0FBEF4E4D4C701222DB03020275
:1000EE00DDEC2CFCEF33FFEE33FEED33FDED30E7B0
:1000FE00EB0202B8EF2BFFEE3AFEED39FDD0E0FB3E
:10010E0050130BBB00030202E0ED13FDEE13FEEFE6
:08011E0013FFEC13FC0202B810
:10012600EC4D6011E8497017ED33EC3304600DE4D3
:10013600FCFFFEFD22E933E8330470F80202D61212
:1001460002A158046009E4CC248150062850090213
:1001560002E02840030202DDC0E0EB4A7044B980A9
:1001660006D0E0FB0202CCEF4E701CBD8008EBFF10
:10017600EAFEE9FD80EBE98DF0A4FEE5F002020F50
:10018600E9CDF9EAFEEBFFEF89F0A4FCE5F0CE89B4
:10019600F0A42EFFE435F0CD89F0A42DFEE435F071
:1001A6008067EF4E7005BD80D780C3EF8BF0A4AC9F
:1001B600F0EE8BF0A42CFCE435F0F8EF8AF0A42CDA
:1001C600E5F038FCE433CB8DF0A42CFCE5F03BF8ED
:1001D600EE8AF0A42CFCE5F038F8E433CF89F0A4DD
:1001E6002CFCE5F038CF3400CE89F0A42FFFE5F0E3
:1001F6003EFEE433C98DF0A42EFEE5F039CD8AF03B
:10020600A42FFFE5F03EFEE43DFD33D0E0FB5007B2
:100216000BBB000F0202E0EC2CFCEF33FFEE33FECB
:06022600ED33FD0202B8F9
:10022C0075F020800E75F010800575F0087D007E4D
:10023C00007F003392D530D50312034EEC334010BF
:10024C00EF33FFEE33FEED33FDEC33FCD5F0ED2256
:0E025C00E5F0247EA2D513CC92E7CDCEFF2292
:10026A00EDD2E7CD33EC3392D524814006E4FFFE8C
:10027A00FDFC22FCE4CFCECDCC24E0501174FF80EB
:10028A00EDC3CC13CCCD13CDCE13CECF13CF047088
:07029A00F030D5DE02034E37
:1002A100E9D2E7C933E833F892D5EDD2E7CD33ECA3
:0702B10033FC5002B2D5221C
:1002B800EC30E7100FBF000C0EBE00080DBD0004A7
:1002C8000BEB6014A2D5EB13FCED92E7FD2274FF53
:1002D800FCFDFEFF22E480F8A2D574FF13FC7D80AC
:0302E800E480EFC0
:1003BD00020512E493A3F8E493A34003F68001F23F
:1003CD0008DFF48029E493A3F85407240CC8C33341
:1003DD00C4540F4420C8834004F456800146F6DF10
:1003ED00E4800B010204081020408090055EE47E3D
:1003FD00019360BCA3FF543F30E509541FFEE49305
:10040D00A360010ECF54C025E060A840B8E493A3CB
:10041D00FAE493A3F8E493A3C8C582C8CAC583CAF6
:10042D00F0A3C8C582C8CAC583CADFE9DEE780BEAE
:010593000067
:1002EB00BB010CE58229F582E5833AF583E02250C8
:1002FB0006E92582F8E622BBFE06E92582F8E22212
:0D030B00E58229F582E5833AF583E493222B
:10031800C2D5EC30E709B2D5E4C39DFDE49CFCEE00
:1003280030E715B2D5E4C39FFFE49EFE12035CC319
:10033800E49DFDE49CFC800312035C30D507C3E414
:060348009FFFE49EFE226F
:0E034E00C3E49FFFE49EFEE49DFDE49CFC22C0
:10035C00BC000BBE0029EF8DF084FFADF022E4CC85
:10036C00F875F008EF2FFFEE33FEEC33FCEE9DEC4E
:10037C00984005FCEE9DFE0FD5F0E9E4CEFD22ED94
:10038C00F8F5F0EE8420D21CFEADF075F008EF2FDE
:10039C00FFED33FD4007985006D5F0F222C398FDCF
:0503AC000FD5F0EA226C
:00000001FF
